:020000040000FA
:060000000A128A110C280F
:10000800FE00030EF0000A08F1000A128A115128B6
:100018000A128A110F28F20183010A128A113A285A
:1000280003308316031788008901033083160313EE
:1000380085008601870188018312031385018601E3
:1000480087018801F2101F083F3940389F00C330EC
:100058009F059F101F14831603139F138B170B17ED
:100068000C17831203130C139F1408000A128A1129
:1000780014200A128A11721C422843283F28F218B9
:10008800462847283F287210831203131E0886004B
:100098009F143F280A128A110C28831203130C1F7D
:1000A800562857285D28F2185A285B285D287214AC
:1000B8000C1371088A00700E8300FE0E7E0E090074
:04400E00F420FF3F5C
:00000001FF
