:020000040000FA
:060000000A128A110C280F
:10000800FE00030EF1000A08F2000A128A11252ADE
:100018000A128A110F28F801F901FA018312031351
:10002800AF01B001B101B201B30183010A128A1113
:100038001D280A128A11F2210A128A110B1D25287D
:1000480026282228781C29282A283728F8182D2815
:100058002E283728831203131E08AC002C08B20080
:10006800781032088600781C3A283B284628F81C65
:100078003E283F284628831203131E08AC002C088C
:10008800B1007810FB30831203132F02031C4D2894
:100098004E2850287815AF01781D53285428AC28CD
:1000A8000130AC002C08B00703303002031C5D2877
:1000B8005E285F28B0017A30AC002C08A4007930A3
:1000C800AD002D08A5003330AE002E08A60031087B
:1000D8000A128A11B1200A128A11962887017A0811
:1000E8000A128A1195210A128A1101308312031308
:1000F8008700AB28870179080A128A1195210A120C
:100108008A110230831203138700AB288701330852
:100118000A128A1195210A128A11043083120313D4
:100128008700AB28831203133008AC00AD012D08FB
:10013800003A0319A028AB282C08003A03197228A2
:10014800013A03197E28033A03198A28AB28781143
:100158009F1422280A128A110C2883120313AA005A
:100168002A08A7002708AB00240884008001250876
:10017800840080012608840083138001EE286430FF
:10018800F3000030F4002B08A700A8012708F500A9
:100198002808F6000A128A112C210A128A117308FB
:1001A80083120313A90026088400290883138000FA
:1001B8009C30A7002708F3002608840000080A12CC
:1001C8008A114F220A128A11831203132B07A800DF
:1001D8002808AB0064302B020318F328F428C3283E
:1001E8001F290A30F3000030F4002B08A700A801EB
:1001F8002708F5002808F6000A128A112C210A128D
:100208008A11730883120313A9002508840029089A
:100218008000F630A7002708F300250884000008AE
:100228000A128A114F220A128A11831203132B070A
:10023800A8002808AB000A302B0203182429252916
:10024800F5282B08A7002408840027088000080048
:1002580083120313A101F41F322933293A29F30920
:10026800F409F30A0319F40AA101A10AF61F3D29AA
:100278003E294729F509F609F50A0319F60A013056
:10028800F7007708A106A201A301730874040319F3
:100298004E294F298629A001A00A5D2901300310A3
:1002A800F30DF40DFF3E031D53290130F7007708C5
:1002B800A007F41F60296129522901300310A20DFB
:1002C800A30DFF3E031D622974087602031D6E29E3
:1002D80073087502031C7129722979297308F502BC
:1002E8007408031CF603F602221401300310F40C00
:1002F800F30CFF3E031D7A290130A002031D852956
:1003080086296129210803198A298B299029A2099C
:10031800A309A20A0319A30A2308F4002208F30078
:100328000800F500C9293F30831203138800F1291A
:100338000630831203138800F1295B3083120313FC
:100348008800F1294F30831203138800F1296630A1
:10035800831203138800F1296D3083120313880078
:10036800F1297D30831203138800F12907308312A5
:1003780003138800F1297F30831203138800F129C1
:100388006730831203138800F1297508F300F4011C
:100398007408003A0319D12997297308003A0319F8
:1003A8009729013A03199C29033A0319A129013A0B
:1003B8000319A629073A0319AB29013A0319B029E9
:1003C800033A0319B529013A0319BA290F3A03194F
:1003D800BF29013A0319C429972908000330831655
:1003E80003178800890103308316031385008601EB
:1003F800870188018312031385018601870188011B
:10040800F8141F083F3940389F00C3309F059F10DC
:100418001F14831603139F138B170B170C178312C4
:1004280003130C13831603130F1481128111011186
:10043800811001100B11FA308312031381009F14ED
:100448000800831203130C1F2A2A2B2A482A78141F
:100458000C130310F81C03140318332A352AF81454
:10046800362AF810F818392A3A2A3E2A8312031332
:100478001F15412A831203131F110130F000700861
:10048800AF07FA3081000B1172088A00710E8300E1
:10049800FE0E7E0E0900F600F501761C542A552A38
:1004A800592A7308F4007408F5070310F30D0310B4
:1004B800F60C7608031D612A622A512A750808007D
:04400E00F420FF3F5C
:00000001FF
