:020000001329C2
:10000800F000030EF100031383120B181020F00EFA
:10001800F000710E83080900061C850A861C8503FA
:060028000B103521080059
:100200008A010A1482073F3406345B344F34663463
:100210006D347D3407347F34673477347C3439343B
:100220005E3479347134031783168801890103130E
:10023000831685018701880103308600031383122A
:10024000850187018801031383128B178B150B110E
:100250000B100313831681130330950003309600AF
:100260000313831206080B103429051A3B210508D5
:0C0270000021870008000F308505080001
:04400E00F420FF3F5C
:00000001FF
