:020000001329C2
:10000800F000030EF100031383120B1812200B19D2
:100018001920F00E700E710E83080900061C850A5F
:10002800861C85030B1053210800A10A5C210800D7
:100200008A010A1482073F3406345B344F34663463
:100210006D347D3407347F34673477347C3439343B
:100220005E3479347134031783168801890103130E
:10023000831685018701880103308600031383122A
:10024000850187018801031383128B178B158B1689
:100250000B110B1003138316811303309500033029
:1002600096000313831206080B1003138312640015
:100270008101031383160F178F160F120F148112AB
:1002800081110115811401105C210311C830210670
:1002900003194B214529A101A00A201AA001200819
:1002A000002188000800051A59210508002187004F
:1002B00008000F308505080003138312D930810030
:0402C0000B11080016
:04400E00F420FF3F5C
:00000001FF
