:060000000A128A1110280B
:100020008316031388011F30870086018501831220
:1000300003138801860185010030A0000030A10073
:1000400007182B208718332007193B2087194320D6
:10005000071A4B20202807182B28A00A201AA001D5
:1000600020088800080087183328A003201AA00160
:1000700020088800080007193B28A10A211AA101BD
:1000800021088600080087194328A103211AA1012D
:10009000210886000800071A4B2820082107850040
:0200A000080056
:04400E00D120FF3F7F
:00000001FF
