:060000000A128A1110280B
:100020008316031388011F3087008601850103179B
:10003000880189018312031388018601850100303C
:10004000A0000030A10007182E20871836200719BD
:100050003E2087194620071A4E20232807182E28ED
:10006000A00A201AA0012008880008008718362856
:10007000A003201AA00120088800080007193E28C4
:10008000A10A211AA1012108860008008719462823
:10009000A103211AA101210886000800071A4E2891
:0800A00020082107850008007B
:04400E00D120FF3F7F
:00000001FF
