:060000000A128A1100291A
:100200008316031388011F308700860185010317B9
:10021000880189018312031388018601850100305A
:10022000A0000030A10007181E21871826210719F9
:100230002E2187193621071A3E21132907181E2956
:10024000A00A201AA0012008880008008718262983
:10025000A003201AA00120088800080007192E29F1
:10026000A10A211AA1012108860008008719362950
:10027000A103211AA101210886000800071A3E29BE
:08028000200821078500080099
:04400E00D120FF3F7F
:00000001FF
