:020000001329C2
:10000800F000030EF1000B190B280C180F28201410
:100018000B1150211528A20A031383120C10562124
:0C0028001528710E8300F00E700E090008
:100200008A010A1482073F3406345B344F34663463
:100210006D347D3407347F34673477347C3439343B
:100220005E3479347134031783168801890103130E
:1002300083168701880189010313831287018801CE
:1002400089010814A101031383128B170B178B1656
:100250000B11031383160C14031383120C100313D6
:100260008312901610161014562103138312640083
:100270008101031383160F178F160F120F148112AB
:1002800081110115811001105021201860212010CA
:1002900003110230220603195D2121088700452938
:1002A00003138312D93081000B110800031383124A
:1002B000DB308E000B308F000800A10AA20108007D
:0E02C0000310880D081D662988010814080027
:04400E00F430FF3F4C
:00000001FF
