:020000001329C2
:10000800F000030EF1000B190E280C1812288C189A
:100018001628192820140B1167211928A20A0C1078
:100028006D211928A30A8C101928710E8300F00E6F
:04003800700E09003D
:100200008A010A1482073F3406345B344F34663463
:100210006D347D3407347F34673477347C3439343B
:100220005E3479347134031783168801890103130E
:1002300083168701880189010313831287018801CE
:1002400089010814A101031383128B170B178B1656
:100250000B11031383160C148C14031383120C104C
:100260008C10031383129016101610146D210313B3
:1002700083166830920003138312910112179216AD
:1002800012169211121592141214031383126400A1
:100290008101031383160F178F160F120F1481128B
:1002A0008111011581100110672120187721031198
:1002B000023022060319742103110A3023060319A0
:1002C000922109186529870155297E215529031393
:1002D0008312D93081000B11080003138312DB3025
:1002E0008E000B308F000800A10AA2010800031045
:1002F000880D081D7D2988010814080020100818A1
:10030000842188188B210800880121080F390021D9
:100310008700081408008801210E0F39002187008A
:1003200088140800A301091C972909100800091462
:020330000800C3
:04400E00F430FF3F4C
:00000001FF
