:020000001329C2
:10000800F000030EF1000B190B280C180F28201410
:100018000B114F211328A20A0C1055211328710E19
:080028008300F00E700E0900C8
:100200008A010A1482073F3406345B344F34663463
:100210006D347D3407347F34673477347C3439343B
:100220005E3479347134031783168801890103130E
:1002300083168701880189010313831287018801CE
:1002400089010814A101031383128B170B178B1656
:100250000B11031383160C14031383120C100313D6
:100260008312901610161014552103138312640084
:100270008101031383160F178F160F120F148112AB
:1002800081110115811001104F2120185F210311E8
:100290000230220603195C21201866214529031328
:1002A0008312D93081000B11080003138312DB3055
:1002B0008E000B308F000800A10AA2010800031075
:1002C000880D081D652988010814080020100818E9
:1002D0006C21881873210800880121080F3900213A
:1002E0008700081408008801210E0F3900218700BB
:0402F0008814080066
:04400E00F430FF3F4C
:00000001FF
