:020000001329C2
:10000800F000030EF1000B19092820140B113B21F5
:0C0018000D28710E8300F00E700E090020
:100200008A010A1482073F3406345B344F34663463
:100210006D347D3407347F34673477347C3439343B
:100220005E3479347134031783168801890103130E
:1002300083168701880189010313831287018801CE
:1002400089010814031383128B178B160B110313E8
:10025000831264008101031383160F178F160F1288
:100260000F14811281110115811001103B212018FA
:1002700041212010372903138312D93081000B113B
:1002800008000310880D081D47298801081408007C
:04400E00F430FF3F4C
:00000001FF
