:020000040000FA
:060000000A128A110C280F
:10000800FE00030EF1000A08F2000A128A11C6293E
:100018000A128A110F28F801F901FA018312031351
:10002800AF01B001B101B20183010A128A1101299D
:1000380083120313AA002A08A7002708AB00240884
:100048008400800125088400831380012608840029
:10005800800159286430F3000030F4002B08A70011
:10006800A8012708F5002808F6000A128A11982026
:100078000A128A11730883120313A9002608840040
:100088002908831380009C30A7002708F30026085E
:10009800840000080A128A112E220A128A11831279
:1000A80003132B07A8002808AB0064302B020318A1
:1000B8005E285F282E288B280A30F3000030F400D1
:1000C8002B08A700A8012708F5002808F6000A123F
:1000D8008A1198200A128A11730883120313A9003F
:1000E80025088400290883138000F630A700270814
:1000F800F3002508840000080A128A112E220A1229
:100108008A11831203132B07A8002808AB000A30B2
:100118002B0203189028912860282B08A700240890
:10012800840027088000080083120313A101F41F2C
:100138009E289F28A628F309F409F30A0319F40A4C
:10014800A101A10AF61FA928AA28B328F509F609CA
:10015800F50A0319F60A0130F7007708A106A2018B
:10016800A301730874040319BA28BB28F228A00154
:10017800A00AC92801300310F30DF40DFF3E031D3A
:10018800BF280130F7007708A007F41FCC28CD2836
:10019800BE2801300310A20DA30DFF3E031DCE287B
:1001A80074087602031DDA2873087502031CDD281B
:1001B800DE28E5287308F5027408031CF603F60226
:1001C800221401300310F40CF30CFF3E031DE62843
:1001D8000130A002031DF128F228CD2821080319B7
:1001E800F628F728FC28A209A309A20A0319A30ADA
:1001F8002308F4002208F30008000A128A11FF21DC
:100208000A128A1179088312031385002F08300413
:1002180003190F291029062903307802031C152910
:1002280016291729F8017A30AC002C08A4003230BE
:10023800AD002D08A5003130AE002E08A6007908C3
:100248000A128A111C200A128A114E2987017A087B
:100258000A128A1169210A128A11013083120313C2
:1002680087006329870132080A128A1169210A1254
:100278008A1102308312031387006329870131082A
:100288000A128A1169210A128A110430831203138F
:1002980087006329780883120313AC00AD012D0889
:1002A800003A0319582963292C08003A03192A2906
:1002B800013A03193629033A031942296329AF0180
:1002C800B00106290A128A110C28F5009D293F3031
:1002D800831203138800C52906308312031388008C
:1002E800C5295B30831203138800C5294F30831258
:1002F80003138800C5296630831203138800C529B3
:100308006D30831203138800C5297D3083120313CF
:100318008800C5290730831203138800C5297F3058
:10032800831203138800C5296730831203138800DA
:10033800C5297508F300F4017408003A0319A529C2
:100348006B297308003A03196B29013A03197029BC
:10035800033A03197529013A03197A29073A031947
:100368007F29013A03198429033A03198929013A93
:1003780003198E290F3A03199329013A0319982969
:100388006B2908000B1CC929CA29D7298312031312
:100398000618CF29D029D7290130F0007008F907AD
:1003A800060886000B100B1CDA29DB29E6298312C4
:1003B80003138618E029E129E6290130F902060825
:1003C80086000B100B1DE929EA29F7290130F000F6
:1003D8007008F807013083120313AF000030B00033
:1003E8000B11D93081000B1072088A00710E83003E
:1003F800FE0E7E0E090083160317880189018316F5
:1004080003138501033086008701880183120313D3
:100418008601870188018B178B15060886000B104B
:100428008B160B11D9308100831603138113151411
:1004380095141614961483120313060886000B10DD
:10044800F901831603130F14811281110115811408
:1004580001100800F600F501761C332A342A382AE0
:100468007308F4007408F5070310F30D0310F60C75
:0E0478007608031D402A412A302A7508080024
:04400E00F420FF3F5C
:00000001FF
