:020000040000FA
:060000000A128A110C280F
:10000800FE00030EF1000A08F2000A128A11B6294E
:100018000A128A110F28F701F801F901FA0183126F
:100028000313AE01AF01B00183010A128A11F5284A
:1000380083120313AA000508A7002708AB004E285F
:100048006430F3000030F4002B08A700A80127084B
:10005800F5002808F6000A128A118C200A128A1163
:10006800730883120313A900260884002908800056
:100078009C30A7002708F3002608840000080A120D
:100088008A111E220A128A11831203132B07A80051
:100098002808AB0064302B0203185328542824285E
:1000A8007F280A30F3000030F4002B08A700A801CD
:1000B8002708F5002808F6000A128A118C200A126F
:1000C8008A11730883120313A900250884002908DC
:1000D8008000F630A7002708F300250884000008F0
:1000E8000A128A111E220A128A11831203132B077D
:1000F800A8002808AB000A302B020318842885289A
:1001080055282B08A7002A08840027088000080023
:1001180083120313A201F41F922893289A28F30943
:10012800F409F30A0319F40AA201A20AF61F9D288A
:100138009E28A728F509F609F50A0319F60A0130D9
:10014800A0002008A206A301A401730874040319DF
:10015800AE28AF28E628A101A10ABD280130031066
:10016800F30DF40DFF3E031DB3280130A000200855
:10017800A107F41FC028C128B22801300310A30D1D
:10018800A40DFF3E031DC22874087602031DCE2865
:1001980073087502031CD128D228D9287308F502E0
:1001A8007408031CF603F602231401300310F40C40
:1001B800F30CFF3E031DDA280130A102031DE528D8
:1001C800E628C12822080319EA28EB28F028A30901
:1001D800A409A30A0319A40A2408F4002308F300B5
:1001E80008000A128A11EF210A128A1183120313D6
:1001F800300885002E082F04031903290429FA283A
:1002080003307702031C09290A290B29F7017930E1
:10021800AC002C08A5007830AD002D08A6007A3077
:100228000A128A111C200A128A113E2987017A08AB
:100238000A128A1159210A128A11013083120313F2
:1002480087005329870179080A128A1159210A124D
:100258008A11023083120313870053298701780813
:100268000A128A1159210A128A11043083120313BF
:1002780087005329770883120313AC00AD012D08BA
:10028800003A0319482953292C08003A03191A2956
:10029800013A03192629033A031932295329AE01D1
:1002A800AF01FA280A128A110C28F5008D293F306F
:1002B800831203138800B5290630831203138800BC
:1002C800B5295B30831203138800B5294F30831298
:1002D80003138800B5296630831203138800B529F3
:1002E8006D30831203138800B5297D308312031300
:1002F8008800B5290730831203138800B5297F3099
:10030800831203138800B52967308312031388000A
:10031800B5297508F300F4017408003A0319952902
:100328005B297308003A03195B29013A031960290C
:10033800033A03196529013A03196A29073A031987
:100348006F29013A03197429033A03197929013AE3
:1003580003197E290F3A03198329013A03198829B9
:100368005B2908000B1CB929BA29C7298312031372
:100378000618BF29C029C7290130F0007008B00746
:10038800060886000B100B1CCA29CB29D629831214
:1003980003138618D029D129D6290130B0020608BE
:1003A80086000B100B1DD929DA29E7290130F00046
:1003B8007008F707013083120313AE000030AF0056
:1003C8000B11D93081000B1072088A00710E83005E
:1003D800FE0E7E0E09008316031788018901831615
:1003E80003138501033086008701880183120313F4
:1003F8008601870188018B178B15060886000B106C
:100408008B160B11D9308100831603138113151431
:1004180095141614961483120313060886000B10FD
:10042800B001831603130F14811281110115811471
:1004380001100800F600F501761C232A242A282A30
:100448007308F4007408F5070310F30D0310F60C95
:0E0458007608031D302A312A202A7508080074
:04400E00F420FF3F5C
:00000001FF
