:020000001329C2
:10000800F000030EF1000B19A30D0B11031383125B
:100018000B181320710E8300F00E700E0900061CD9
:0A0028002014861CA0140B10080021
:100200008A010A1482073F3406345B344F34663463
:100210006D347D3407347F34673477347C3439343B
:100220005E3479347134031783168801890103130E
:10023000831685018701880103308600031383122A
:100240008501860187018801A3012314031383120A
:100250008B178B158B160B110B1003138316811341
:1002600003309500033096000313831206080B1029
:100270000313831264008101031383160F178F1673
:100280000F120F14811281110115811401145B21C9
:100290000313831220186421A018672107080F395F
:1002A000A200070E0F39A1002319612123186A212A
:1002B000A3187121482903138312D93081000B112F
:1002C0000800A30123140800870A201008008703F0
:1002D000A01008008501220800218800230885005D
:1002E00008008501210800218800230885000800F6
:04400E00F420FF3F5C
:00000001FF
