:020000040000FA
:060000000A128A110C280F
:10000800FE00030EF1000A08F2000A128A1195296F
:100018000A128A110F28F801F901FA0183010A125C
:100028008A11CA2800308A000408840A820700342A
:1000380028343134293420344434653473347034EA
:100048006C34653467346134723420346334613419
:10005800643465346E346134203464346534203457
:1000680063346134723461346334743465347234A3
:100078006534733420340D3400340D345134753400
:100088006534203461346334633469346F346E34D6
:100098002034643465347334653461342034653411
:1000A8006A346534633475347434613472343F347B
:1000B80020340D3400340D34563461346C346F34CC
:1000C80072342034703461347234613420346534CD
:1000D8006C342034703475346534723474346F344D
:1000E800203441340D3400340D34563461346C34CA
:1000F8006F34723420347034613472346134203493
:1001080065346C3420347034753465347234743426
:100118006F34203442340D340034283432342934D6
:100128002034433461346D34623469346134723458
:10013800203450344F3452345434413420340D3444
:1001480000342834333429342034433461346D3452
:100158006234693461347234203450344F34523448
:10016800543442340D3400340D344334613464342F
:1001780065346E346134203465346E3476346934D1
:100188006134643461340D340D3400340A128A1138
:1001980050210A128A11342926300A128A1176212E
:1001A8000A128A1101300A128A1176210A128A115A
:1001B80076300A128A1176210A128A118A300A12B6
:1001C8008A1176210A128A111430F6007608FA008C
:1001D80034299D300A128A1176210A128A11F901EE
:1001E800FA01342944300A128A1176210A128A1136
:1001F8007808031900290129FC28790883120313B8
:100208008500F3285D300A128A1176210A128A11B4
:1002180078080319102911290C2979088312031366
:100228008600F328F80131307906031D1C291D29A1
:100238001F29FA01FA0A32307906031D24292529D3
:1002480029290230F6007608FA0033307906031DB2
:100258002E292F2934290330F6007608FA0034298C
:100268007A08F600F7017708003A03193C2934297F
:100278007608003A0319D028013A0319ED28033A01
:100288000319F628013A03190629173A03191629FA
:1002980034290A128A110C28831603178801890148
:1002A8008316031385018601071387178312031327
:1002B800850186018701FA017030831603138F04C4
:1002C8000F148B170B178C160C30990018119816F1
:1002D80083120313181683160313181283120313B9
:1002E80098170800F5008829750884000A128A11F1
:1002F80016200A128A110A128A11A9210A128A11D1
:100308000130F4007408F507750884000A128A1190
:1003180016200A128A11003A031D93299429782974
:100328000800831203138C1E9A299B29A2291A08F4
:10033800F0007008F9008C12F801F80A72088A00B7
:10034800710E8300FE0E7E0E0900F30073088312FF
:100358000313990083160313981CB329B429AE29F3
:0203680008008B
:04400E00F420FF3F5C
:00000001FF
