:020000001329C2
:10000800F000030EF1000B19A30D0B1920150B11AD
:10001800031383120B181520710E8300F00E700E57
:0E0028000900061C2014861CA0140B100800F2
:100200008A010A1482073F3406345B344F34663463
:100210006D347D3407347F34673477347C3439343B
:100220005E3479347134031783168801890103130E
:10023000831685018701880103308600031383122A
:100240008501860187018801A3012314031383120A
:100250008B178B158B160B110B1003138316811341
:1002600003309500033096000313831206080B1029
:100270000313831264008101031383160F178F1673
:100280000F120F14811281110115811401106021C8
:100290000313831220187121A018742107080F3945
:1002A000A200070E0F39A100A3196E2120196621A3
:1002B000A601A701070803194829A4008C21482991
:1002C00003138312D93081000B1108002318772102
:1002D000A3187E212319852120110800A3012314CE
:1002E0000800870A201008008703A0100800850175
:1002F00022080021880023088500080085012108C4
:1003000000218800230885000800850127080021B6
:100310008800230885000800A50A6430A402031899
:100320008C299F21A60A0A30A402031892299B2136
:100330002408A7000800A6030A30A4070800A503A4
:060340006430A407080070
:04400E00F420FF3F5C
:00000001FF
