:020000000029D5
:10000800F000030EF100031383120B181028061CCE
:100018002014861CA0140B100B19A30D0B11F00E45
:08002800700E710E830809003F
:10020000031783168801890103138316850187016B
:10021000880103308600031383128501860187015C
:100220008801A3012314031383128B178B158B16DC
:100230000B110B1003138316811303309500033049
:1002400096000313831206080B1003138312640035
:100250008101031383160F178F160F120F148112CB
:1002600081110115811401104F21031383122018ED
:100270004921A0184C2107080F39A200070E0F3999
:10028000A10023194621230885003529A301231441
:100290000800870A201008008703A0100800031335
:0A02A0008312D93081000B11080011
:04400E00F420FF3F5C
:00000001FF
