:060000000A128A11AB2F69
:100F5600031783168801890103138316F33086006D
:100F6600870188018901031383128601870188019D
:100F76008901A001031383168112811101158114C1
:100F86000110031383120C3081000B110313831617
:100F96000F178F120F120F14031383120B19E62764
:100FA60006182114061CE2278618A114861CDE27C3
:100FB600071A8701CF2FA1188703A110080021184F
:100FC600870A21100800031383120C308100A00A3F
:100FD6002019F4270B110800013089062111880118
:100FE6000800880A081A8801A001031107080806E4
:0A0FF600031921152119EF27080047
:04400E00F420FF3F5C
:00000001FF
