:060000000A128A11AC2F68
:100F5800031783168801890103138316F33086006B
:100F6800870188018901031383128601870188019B
:100F78008901A001031383168112811101158114BF
:100F88000110031383120C3081000B110313831615
:100F98000F178F120F120F14031383120B19E72761
:100FA80006182114061CE3278618A114861CDF27BF
:100FB800071A8701D02FA1188703A110080021184C
:100FC800870A21100800031383120C308100A00A3D
:100FD8002019F4270B110800890A2111880108003B
:100FE800880A081A8801A0010311070808060319CE
:080FF80021152119F027080062
:04400E00F420FF3F5C
:00000001FF
